{"abi":[{"constant":false,"inputs":[{"name":"_priority","type":"uint256"},{"name":"_value","type":"uint256"}],"name":"insert","outputs":[],"payable":false,"stateMutability":"nonpayable","type":"function"},{"constant":false,"inputs":[],"name":"delMin","outputs":[{"name":"","type":"uint256"},{"name":"","type":"uint256"}],"payable":false,"stateMutability":"nonpayable","type":"function"},{"constant":true,"inputs":[],"name":"currentSize","outputs":[{"name":"","type":"uint256"}],"payable":false,"stateMutability":"view","type":"function"},{"constant":true,"inputs":[],"name":"getMin","outputs":[{"name":"","type":"uint256"},{"name":"","type":"uint256"}],"payable":false,"stateMutability":"view","type":"function"},{"inputs":[],"payable":false,"stateMutability":"nonpayable","type":"constructor"}],"evm":{"bytecode":{"linkReferences":{},"object":"608060405234801561001057600080fd5b50336000806101000a81548173ffffffffffffffffffffffffffffffffffffffff021916908373ffffffffffffffffffffffffffffffffffffffff160217905550602060405190810160405280600060ff168152506001906001610075929190610083565b5060006002819055506100fa565b8280548282559060005260206000209081019282156100c4579160200282015b828111156100c3578251829060ff169055916020019190600101906100a3565b5b5090506100d191906100d5565b5090565b6100f791905b808211156100f35760008160009055506001016100db565b5090565b90565b610837806101096000396000f300608060405260043610610062576000357c0100000000000000000000000000000000000000000000000000000000900463ffffffff1680631d834a1b14610067578063b07576ac1461009e578063bda1504b146100d0578063d6362e97146100fb575b600080fd5b34801561007357600080fd5b5061009c600480360381019080803590602001909291908035906020019092919050505061012d565b005b3480156100aa57600080fd5b506100b3610257565b604051808381526020018281526020019250505060405180910390f35b3480156100dc57600080fd5b506100e56103f2565b6040518082815260200191505060405180910390f35b34801561010757600080fd5b506101106103f8565b604051808381526020018281526020019250505060405180910390f35b60008060009054906101000a900473ffffffffffffffffffffffffffffffffffffffff1673ffffffffffffffffffffffffffffffffffffffff163373ffffffffffffffffffffffffffffffffffffffff161415156101f3576040517f08c379a00000000000000000000000000000000000000000000000000000000081526004018080602001828103825260158152602001807f53656e646572206d757374206265206f776e65722e000000000000000000000081525060200191505060405180910390fd5b816080849060020a021790506001819080600181540180825580915050906001820390600052602060002001600090919290919091505550610241600160025461042590919063ffffffff16565b600281905550610252600254610443565b505050565b60008060008060009054906101000a900473ffffffffffffffffffffffffffffffffffffffff1673ffffffffffffffffffffffffffffffffffffffff163373ffffffffffffffffffffffffffffffffffffffff16141515610320576040517f08c379a00000000000000000000000000000000000000000000000000000000081526004018080602001828103825260158152602001807f53656e646572206d757374206265206f776e65722e000000000000000000000081525060200191505060405180910390fd5b60018081548110151561032f57fe5b90600052602060002001549050600160025481548110151561034d57fe5b906000526020600020015460018081548110151561036757fe5b9060005260206000200181905550600160025481548110151561038657fe5b90600052602060002001600090556103aa600160025461053290919063ffffffff16565b6002819055506103ba600161054b565b6103d26001808054905061053290919063ffffffff16565b6001816103df91906107ba565b506103e981610627565b92509250509091565b60025481565b60008061041d60018081548110151561040d57fe5b9060005260206000200154610627565b915091509091565b600080828401905083811015151561043957fe5b8091505092915050565b600080600083925082915060018381548110151561045d57fe5b906000526020600020015490505b600161048160028561065a90919063ffffffff16565b81548110151561048d57fe5b90600052602060002001548110156105045760016104b560028561065a90919063ffffffff16565b8154811015156104c157fe5b90600052602060002001546001848154811015156104db57fe5b90600052602060002001819055506104fd60028461065a90919063ffffffff16565b925061046b565b818314151561052c578060018481548110151561051d57fe5b90600052602060002001819055505b50505050565b600082821115151561054057fe5b818303905092915050565b60008060008084935083925060018481548110151561056657fe5b9060005260206000200154915061057c84610675565b90505b60025481111580156105a9575060018181548110151561059b57fe5b906000526020600020015482115b156105f8576001818154811015156105bd57fe5b90600052602060002001546001858154811015156105d757fe5b90600052602060002001819055508093506105f184610675565b905061057f565b8284141515610620578160018581548110151561061157fe5b90600052602060002001819055505b5050505050565b6000806000806080859060020a90049150846fffffffffffffffffffffffffffffffff1690508181935093505050915091565b600080828481151561066857fe5b0490508091505092915050565b60006002546106a1600161069360028661077f90919063ffffffff16565b61042590919063ffffffff16565b11156106c2576106bb60028361077f90919063ffffffff16565b905061077a565b60016106eb60016106dd60028661077f90919063ffffffff16565b61042590919063ffffffff16565b8154811015156106f757fe5b9060005260206000200154600161071860028561077f90919063ffffffff16565b81548110151561072457fe5b906000526020600020015410156107505761074960028361077f90919063ffffffff16565b905061077a565b610777600161076960028561077f90919063ffffffff16565b61042590919063ffffffff16565b90505b919050565b600080600084141561079457600091506107b3565b82840290508284828115156107a557fe5b041415156107af57fe5b8091505b5092915050565b8154818355818111156107e1578183600052602060002091820191016107e091906107e6565b5b505050565b61080891905b808211156108045760008160009055506001016107ec565b5090565b905600a165627a7a72305820b900c71be535c7505c889445273ce582cbc89d263a65b39de3c07ec747840ac70029","opcodes":"PUSH1 0x80 PUSH1 0x40 MSTORE CALLVALUE DUP1 ISZERO PUSH2 0x10 JUMPI PUSH1 0x0 DUP1 REVERT JUMPDEST POP CALLER PUSH1 0x0 DUP1 PUSH2 0x100 EXP DUP2 SLOAD DUP2 PUSH20 0xFFFFFFFFFFFFFFFFFFFFFFFFFFFFFFFFFFFFFFFF MUL NOT AND SWAP1 DUP4 PUSH20 0xFFFFFFFFFFFFFFFFFFFFFFFFFFFFFFFFFFFFFFFF AND MUL OR SWAP1 SSTORE POP PUSH1 0x20 PUSH1 0x40 MLOAD SWAP1 DUP2 ADD PUSH1 0x40 MSTORE DUP1 PUSH1 0x0 PUSH1 0xFF AND DUP2 MSTORE POP PUSH1 0x1 SWAP1 PUSH1 0x1 PUSH2 0x75 SWAP3 SWAP2 SWAP1 PUSH2 0x83 JUMP JUMPDEST POP PUSH1 0x0 PUSH1 0x2 DUP2 SWAP1 SSTORE POP PUSH2 0xFA JUMP JUMPDEST DUP3 DUP1 SLOAD DUP3 DUP3 SSTORE SWAP1 PUSH1 0x0 MSTORE PUSH1 0x20 PUSH1 0x0 KECCAK256 SWAP1 DUP2 ADD SWAP3 DUP3 ISZERO PUSH2 0xC4 JUMPI SWAP2 PUSH1 0x20 MUL DUP3 ADD JUMPDEST DUP3 DUP2 GT ISZERO PUSH2 0xC3 JUMPI DUP3 MLOAD DUP3 SWAP1 PUSH1 0xFF AND SWAP1 SSTORE SWAP2 PUSH1 0x20 ADD SWAP2 SWAP1 PUSH1 0x1 ADD SWAP1 PUSH2 0xA3 JUMP JUMPDEST JUMPDEST POP SWAP1 POP PUSH2 0xD1 SWAP2 SWAP1 PUSH2 0xD5 JUMP JUMPDEST POP SWAP1 JUMP JUMPDEST PUSH2 0xF7 SWAP2 SWAP1 JUMPDEST DUP1 DUP3 GT ISZERO PUSH2 0xF3 JUMPI PUSH1 0x0 DUP2 PUSH1 0x0 SWAP1 SSTORE POP PUSH1 0x1 ADD PUSH2 0xDB JUMP JUMPDEST POP SWAP1 JUMP JUMPDEST SWAP1 JUMP JUMPDEST PUSH2 0x837 DUP1 PUSH2 0x109 PUSH1 0x0 CODECOPY PUSH1 0x0 RETURN STOP PUSH1 0x80 PUSH1 0x40 MSTORE PUSH1 0x4 CALLDATASIZE LT PUSH2 0x62 JUMPI PUSH1 0x0 CALLDATALOAD PUSH29 0x100000000000000000000000000000000000000000000000000000000 SWAP1 DIV PUSH4 0xFFFFFFFF AND DUP1 PUSH4 0x1D834A1B EQ PUSH2 0x67 JUMPI DUP1 PUSH4 0xB07576AC EQ PUSH2 0x9E JUMPI DUP1 PUSH4 0xBDA1504B EQ PUSH2 0xD0 JUMPI DUP1 PUSH4 0xD6362E97 EQ PUSH2 0xFB JUMPI JUMPDEST PUSH1 0x0 DUP1 REVERT JUMPDEST CALLVALUE DUP1 ISZERO PUSH2 0x73 JUMPI PUSH1 0x0 DUP1 REVERT JUMPDEST POP PUSH2 0x9C PUSH1 0x4 DUP1 CALLDATASIZE SUB DUP2 ADD SWAP1 DUP1 DUP1 CALLDATALOAD SWAP1 PUSH1 0x20 ADD SWAP1 SWAP3 SWAP2 SWAP1 DUP1 CALLDATALOAD SWAP1 PUSH1 0x20 ADD SWAP1 SWAP3 SWAP2 SWAP1 POP POP POP PUSH2 0x12D JUMP JUMPDEST STOP JUMPDEST CALLVALUE DUP1 ISZERO PUSH2 0xAA JUMPI PUSH1 0x0 DUP1 REVERT JUMPDEST POP PUSH2 0xB3 PUSH2 0x257 JUMP JUMPDEST PUSH1 0x40 MLOAD DUP1 DUP4 DUP2 MSTORE PUSH1 0x20 ADD DUP3 DUP2 MSTORE PUSH1 0x20 ADD SWAP3 POP POP POP PUSH1 0x40 MLOAD DUP1 SWAP2 SUB SWAP1 RETURN JUMPDEST CALLVALUE DUP1 ISZERO PUSH2 0xDC JUMPI PUSH1 0x0 DUP1 REVERT JUMPDEST POP PUSH2 0xE5 PUSH2 0x3F2 JUMP JUMPDEST PUSH1 0x40 MLOAD DUP1 DUP3 DUP2 MSTORE PUSH1 0x20 ADD SWAP2 POP POP PUSH1 0x40 MLOAD DUP1 SWAP2 SUB SWAP1 RETURN JUMPDEST CALLVALUE DUP1 ISZERO PUSH2 0x107 JUMPI PUSH1 0x0 DUP1 REVERT JUMPDEST POP PUSH2 0x110 PUSH2 0x3F8 JUMP JUMPDEST PUSH1 0x40 MLOAD DUP1 DUP4 DUP2 MSTORE PUSH1 0x20 ADD DUP3 DUP2 MSTORE PUSH1 0x20 ADD SWAP3 POP POP POP PUSH1 0x40 MLOAD DUP1 SWAP2 SUB SWAP1 RETURN JUMPDEST PUSH1 0x0 DUP1 PUSH1 0x0 SWAP1 SLOAD SWAP1 PUSH2 0x100 EXP SWAP1 DIV PUSH20 0xFFFFFFFFFFFFFFFFFFFFFFFFFFFFFFFFFFFFFFFF AND PUSH20 0xFFFFFFFFFFFFFFFFFFFFFFFFFFFFFFFFFFFFFFFF AND CALLER PUSH20 0xFFFFFFFFFFFFFFFFFFFFFFFFFFFFFFFFFFFFFFFF AND EQ ISZERO ISZERO PUSH2 0x1F3 JUMPI PUSH1 0x40 MLOAD PUSH32 0x8C379A000000000000000000000000000000000000000000000000000000000 DUP2 MSTORE PUSH1 0x4 ADD DUP1 DUP1 PUSH1 0x20 ADD DUP3 DUP2 SUB DUP3 MSTORE PUSH1 0x15 DUP2 MSTORE PUSH1 0x20 ADD DUP1 PUSH32 0x53656E646572206D757374206265206F776E65722E0000000000000000000000 DUP2 MSTORE POP PUSH1 0x20 ADD SWAP2 POP POP PUSH1 0x40 MLOAD DUP1 SWAP2 SUB SWAP1 REVERT JUMPDEST DUP2 PUSH1 0x80 DUP5 SWAP1 PUSH1 0x2 EXP MUL OR SWAP1 POP PUSH1 0x1 DUP2 SWAP1 DUP1 PUSH1 0x1 DUP2 SLOAD ADD DUP1 DUP3 SSTORE DUP1 SWAP2 POP POP SWAP1 PUSH1 0x1 DUP3 SUB SWAP1 PUSH1 0x0 MSTORE PUSH1 0x20 PUSH1 0x0 KECCAK256 ADD PUSH1 0x0 SWAP1 SWAP2 SWAP3 SWAP1 SWAP2 SWAP1 SWAP2 POP SSTORE POP PUSH2 0x241 PUSH1 0x1 PUSH1 0x2 SLOAD PUSH2 0x425 SWAP1 SWAP2 SWAP1 PUSH4 0xFFFFFFFF AND JUMP JUMPDEST PUSH1 0x2 DUP2 SWAP1 SSTORE POP PUSH2 0x252 PUSH1 0x2 SLOAD PUSH2 0x443 JUMP JUMPDEST POP POP POP JUMP JUMPDEST PUSH1 0x0 DUP1 PUSH1 0x0 DUP1 PUSH1 0x0 SWAP1 SLOAD SWAP1 PUSH2 0x100 EXP SWAP1 DIV PUSH20 0xFFFFFFFFFFFFFFFFFFFFFFFFFFFFFFFFFFFFFFFF AND PUSH20 0xFFFFFFFFFFFFFFFFFFFFFFFFFFFFFFFFFFFFFFFF AND CALLER PUSH20 0xFFFFFFFFFFFFFFFFFFFFFFFFFFFFFFFFFFFFFFFF AND EQ ISZERO ISZERO PUSH2 0x320 JUMPI PUSH1 0x40 MLOAD PUSH32 0x8C379A000000000000000000000000000000000000000000000000000000000 DUP2 MSTORE PUSH1 0x4 ADD DUP1 DUP1 PUSH1 0x20 ADD DUP3 DUP2 SUB DUP3 MSTORE PUSH1 0x15 DUP2 MSTORE PUSH1 0x20 ADD DUP1 PUSH32 0x53656E646572206D757374206265206F776E65722E0000000000000000000000 DUP2 MSTORE POP PUSH1 0x20 ADD SWAP2 POP POP PUSH1 0x40 MLOAD DUP1 SWAP2 SUB SWAP1 REVERT JUMPDEST PUSH1 0x1 DUP1 DUP2 SLOAD DUP2 LT ISZERO ISZERO PUSH2 0x32F JUMPI INVALID JUMPDEST SWAP1 PUSH1 0x0 MSTORE PUSH1 0x20 PUSH1 0x0 KECCAK256 ADD SLOAD SWAP1 POP PUSH1 0x1 PUSH1 0x2 SLOAD DUP2 SLOAD DUP2 LT ISZERO ISZERO PUSH2 0x34D JUMPI INVALID JUMPDEST SWAP1 PUSH1 0x0 MSTORE PUSH1 0x20 PUSH1 0x0 KECCAK256 ADD SLOAD PUSH1 0x1 DUP1 DUP2 SLOAD DUP2 LT ISZERO ISZERO PUSH2 0x367 JUMPI INVALID JUMPDEST SWAP1 PUSH1 0x0 MSTORE PUSH1 0x20 PUSH1 0x0 KECCAK256 ADD DUP2 SWAP1 SSTORE POP PUSH1 0x1 PUSH1 0x2 SLOAD DUP2 SLOAD DUP2 LT ISZERO ISZERO PUSH2 0x386 JUMPI INVALID JUMPDEST SWAP1 PUSH1 0x0 MSTORE PUSH1 0x20 PUSH1 0x0 KECCAK256 ADD PUSH1 0x0 SWAP1 SSTORE PUSH2 0x3AA PUSH1 0x1 PUSH1 0x2 SLOAD PUSH2 0x532 SWAP1 SWAP2 SWAP1 PUSH4 0xFFFFFFFF AND JUMP JUMPDEST PUSH1 0x2 DUP2 SWAP1 SSTORE POP PUSH2 0x3BA PUSH1 0x1 PUSH2 0x54B JUMP JUMPDEST PUSH2 0x3D2 PUSH1 0x1 DUP1 DUP1 SLOAD SWAP1 POP PUSH2 0x532 SWAP1 SWAP2 SWAP1 PUSH4 0xFFFFFFFF AND JUMP JUMPDEST PUSH1 0x1 DUP2 PUSH2 0x3DF SWAP2 SWAP1 PUSH2 0x7BA JUMP JUMPDEST POP PUSH2 0x3E9 DUP2 PUSH2 0x627 JUMP JUMPDEST SWAP3 POP SWAP3 POP POP SWAP1 SWAP2 JUMP JUMPDEST PUSH1 0x2 SLOAD DUP2 JUMP JUMPDEST PUSH1 0x0 DUP1 PUSH2 0x41D PUSH1 0x1 DUP1 DUP2 SLOAD DUP2 LT ISZERO ISZERO PUSH2 0x40D JUMPI INVALID JUMPDEST SWAP1 PUSH1 0x0 MSTORE PUSH1 0x20 PUSH1 0x0 KECCAK256 ADD SLOAD PUSH2 0x627 JUMP JUMPDEST SWAP2 POP SWAP2 POP SWAP1 SWAP2 JUMP JUMPDEST PUSH1 0x0 DUP1 DUP3 DUP5 ADD SWAP1 POP DUP4 DUP2 LT ISZERO ISZERO ISZERO PUSH2 0x439 JUMPI INVALID JUMPDEST DUP1 SWAP2 POP POP SWAP3 SWAP2 POP POP JUMP JUMPDEST PUSH1 0x0 DUP1 PUSH1 0x0 DUP4 SWAP3 POP DUP3 SWAP2 POP PUSH1 0x1 DUP4 DUP2 SLOAD DUP2 LT ISZERO ISZERO PUSH2 0x45D JUMPI INVALID JUMPDEST SWAP1 PUSH1 0x0 MSTORE PUSH1 0x20 PUSH1 0x0 KECCAK256 ADD SLOAD SWAP1 POP JUMPDEST PUSH1 0x1 PUSH2 0x481 PUSH1 0x2 DUP6 PUSH2 0x65A SWAP1 SWAP2 SWAP1 PUSH4 0xFFFFFFFF AND JUMP JUMPDEST DUP2 SLOAD DUP2 LT ISZERO ISZERO PUSH2 0x48D JUMPI INVALID JUMPDEST SWAP1 PUSH1 0x0 MSTORE PUSH1 0x20 PUSH1 0x0 KECCAK256 ADD SLOAD DUP2 LT ISZERO PUSH2 0x504 JUMPI PUSH1 0x1 PUSH2 0x4B5 PUSH1 0x2 DUP6 PUSH2 0x65A SWAP1 SWAP2 SWAP1 PUSH4 0xFFFFFFFF AND JUMP JUMPDEST DUP2 SLOAD DUP2 LT ISZERO ISZERO PUSH2 0x4C1 JUMPI INVALID JUMPDEST SWAP1 PUSH1 0x0 MSTORE PUSH1 0x20 PUSH1 0x0 KECCAK256 ADD SLOAD PUSH1 0x1 DUP5 DUP2 SLOAD DUP2 LT ISZERO ISZERO PUSH2 0x4DB JUMPI INVALID JUMPDEST SWAP1 PUSH1 0x0 MSTORE PUSH1 0x20 PUSH1 0x0 KECCAK256 ADD DUP2 SWAP1 SSTORE POP PUSH2 0x4FD PUSH1 0x2 DUP5 PUSH2 0x65A SWAP1 SWAP2 SWAP1 PUSH4 0xFFFFFFFF AND JUMP JUMPDEST SWAP3 POP PUSH2 0x46B JUMP JUMPDEST DUP2 DUP4 EQ ISZERO ISZERO PUSH2 0x52C JUMPI DUP1 PUSH1 0x1 DUP5 DUP2 SLOAD DUP2 LT ISZERO ISZERO PUSH2 0x51D JUMPI INVALID JUMPDEST SWAP1 PUSH1 0x0 MSTORE PUSH1 0x20 PUSH1 0x0 KECCAK256 ADD DUP2 SWAP1 SSTORE POP JUMPDEST POP POP POP POP JUMP JUMPDEST PUSH1 0x0 DUP3 DUP3 GT ISZERO ISZERO ISZERO PUSH2 0x540 JUMPI INVALID JUMPDEST DUP2 DUP4 SUB SWAP1 POP SWAP3 SWAP2 POP POP JUMP JUMPDEST PUSH1 0x0 DUP1 PUSH1 0x0 DUP1 DUP5 SWAP4 POP DUP4 SWAP3 POP PUSH1 0x1 DUP5 DUP2 SLOAD DUP2 LT ISZERO ISZERO PUSH2 0x566 JUMPI INVALID JUMPDEST SWAP1 PUSH1 0x0 MSTORE PUSH1 0x20 PUSH1 0x0 KECCAK256 ADD SLOAD SWAP2 POP PUSH2 0x57C DUP5 PUSH2 0x675 JUMP JUMPDEST SWAP1 POP JUMPDEST PUSH1 0x2 SLOAD DUP2 GT ISZERO DUP1 ISZERO PUSH2 0x5A9 JUMPI POP PUSH1 0x1 DUP2 DUP2 SLOAD DUP2 LT ISZERO ISZERO PUSH2 0x59B JUMPI INVALID JUMPDEST SWAP1 PUSH1 0x0 MSTORE PUSH1 0x20 PUSH1 0x0 KECCAK256 ADD SLOAD DUP3 GT JUMPDEST ISZERO PUSH2 0x5F8 JUMPI PUSH1 0x1 DUP2 DUP2 SLOAD DUP2 LT ISZERO ISZERO PUSH2 0x5BD JUMPI INVALID JUMPDEST SWAP1 PUSH1 0x0 MSTORE PUSH1 0x20 PUSH1 0x0 KECCAK256 ADD SLOAD PUSH1 0x1 DUP6 DUP2 SLOAD DUP2 LT ISZERO ISZERO PUSH2 0x5D7 JUMPI INVALID JUMPDEST SWAP1 PUSH1 0x0 MSTORE PUSH1 0x20 PUSH1 0x0 KECCAK256 ADD DUP2 SWAP1 SSTORE POP DUP1 SWAP4 POP PUSH2 0x5F1 DUP5 PUSH2 0x675 JUMP JUMPDEST SWAP1 POP PUSH2 0x57F JUMP JUMPDEST DUP3 DUP5 EQ ISZERO ISZERO PUSH2 0x620 JUMPI DUP2 PUSH1 0x1 DUP6 DUP2 SLOAD DUP2 LT ISZERO ISZERO PUSH2 0x611 JUMPI INVALID JUMPDEST SWAP1 PUSH1 0x0 MSTORE PUSH1 0x20 PUSH1 0x0 KECCAK256 ADD DUP2 SWAP1 SSTORE POP JUMPDEST POP POP POP POP POP JUMP JUMPDEST PUSH1 0x0 DUP1 PUSH1 0x0 DUP1 PUSH1 0x80 DUP6 SWAP1 PUSH1 0x2 EXP SWAP1 DIV SWAP2 POP DUP5 PUSH16 0xFFFFFFFFFFFFFFFFFFFFFFFFFFFFFFFF AND SWAP1 POP DUP2 DUP2 SWAP4 POP SWAP4 POP POP POP SWAP2 POP SWAP2 JUMP JUMPDEST PUSH1 0x0 DUP1 DUP3 DUP5 DUP2 ISZERO ISZERO PUSH2 0x668 JUMPI INVALID JUMPDEST DIV SWAP1 POP DUP1 SWAP2 POP POP SWAP3 SWAP2 POP POP JUMP JUMPDEST PUSH1 0x0 PUSH1 0x2 SLOAD PUSH2 0x6A1 PUSH1 0x1 PUSH2 0x693 PUSH1 0x2 DUP7 PUSH2 0x77F SWAP1 SWAP2 SWAP1 PUSH4 0xFFFFFFFF AND JUMP JUMPDEST PUSH2 0x425 SWAP1 SWAP2 SWAP1 PUSH4 0xFFFFFFFF AND JUMP JUMPDEST GT ISZERO PUSH2 0x6C2 JUMPI PUSH2 0x6BB PUSH1 0x2 DUP4 PUSH2 0x77F SWAP1 SWAP2 SWAP1 PUSH4 0xFFFFFFFF AND JUMP JUMPDEST SWAP1 POP PUSH2 0x77A JUMP JUMPDEST PUSH1 0x1 PUSH2 0x6EB PUSH1 0x1 PUSH2 0x6DD PUSH1 0x2 DUP7 PUSH2 0x77F SWAP1 SWAP2 SWAP1 PUSH4 0xFFFFFFFF AND JUMP JUMPDEST PUSH2 0x425 SWAP1 SWAP2 SWAP1 PUSH4 0xFFFFFFFF AND JUMP JUMPDEST DUP2 SLOAD DUP2 LT ISZERO ISZERO PUSH2 0x6F7 JUMPI INVALID JUMPDEST SWAP1 PUSH1 0x0 MSTORE PUSH1 0x20 PUSH1 0x0 KECCAK256 ADD SLOAD PUSH1 0x1 PUSH2 0x718 PUSH1 0x2 DUP6 PUSH2 0x77F SWAP1 SWAP2 SWAP1 PUSH4 0xFFFFFFFF AND JUMP JUMPDEST DUP2 SLOAD DUP2 LT ISZERO ISZERO PUSH2 0x724 JUMPI INVALID JUMPDEST SWAP1 PUSH1 0x0 MSTORE PUSH1 0x20 PUSH1 0x0 KECCAK256 ADD SLOAD LT ISZERO PUSH2 0x750 JUMPI PUSH2 0x749 PUSH1 0x2 DUP4 PUSH2 0x77F SWAP1 SWAP2 SWAP1 PUSH4 0xFFFFFFFF AND JUMP JUMPDEST SWAP1 POP PUSH2 0x77A JUMP JUMPDEST PUSH2 0x777 PUSH1 0x1 PUSH2 0x769 PUSH1 0x2 DUP6 PUSH2 0x77F SWAP1 SWAP2 SWAP1 PUSH4 0xFFFFFFFF AND JUMP JUMPDEST PUSH2 0x425 SWAP1 SWAP2 SWAP1 PUSH4 0xFFFFFFFF AND JUMP JUMPDEST SWAP1 POP JUMPDEST SWAP2 SWAP1 POP JUMP JUMPDEST PUSH1 0x0 DUP1 PUSH1 0x0 DUP5 EQ ISZERO PUSH2 0x794 JUMPI PUSH1 0x0 SWAP2 POP PUSH2 0x7B3 JUMP JUMPDEST DUP3 DUP5 MUL SWAP1 POP DUP3 DUP5 DUP3 DUP2 ISZERO ISZERO PUSH2 0x7A5 JUMPI INVALID JUMPDEST DIV EQ ISZERO ISZERO PUSH2 0x7AF JUMPI INVALID JUMPDEST DUP1 SWAP2 POP JUMPDEST POP SWAP3 SWAP2 POP POP JUMP JUMPDEST DUP2 SLOAD DUP2 DUP4 SSTORE DUP2 DUP2 GT ISZERO PUSH2 0x7E1 JUMPI DUP2 DUP4 PUSH1 0x0 MSTORE PUSH1 0x20 PUSH1 0x0 KECCAK256 SWAP2 DUP3 ADD SWAP2 ADD PUSH2 0x7E0 SWAP2 SWAP1 PUSH2 0x7E6 JUMP JUMPDEST JUMPDEST POP POP POP JUMP JUMPDEST PUSH2 0x808 SWAP2 SWAP1 JUMPDEST DUP1 DUP3 GT ISZERO PUSH2 0x804 JUMPI PUSH1 0x0 DUP2 PUSH1 0x0 SWAP1 SSTORE POP PUSH1 0x1 ADD PUSH2 0x7EC JUMP JUMPDEST POP SWAP1 JUMP JUMPDEST SWAP1 JUMP STOP LOG1 PUSH6 0x627A7A723058 KECCAK256 0xb9 STOP 0xc7 SHL 0xe5 CALLDATALOAD 0xc7 POP 0x5c DUP9 SWAP5 GASLIMIT 0x27 EXTCODECOPY 0xe5 DUP3 0xcb 0xc8 SWAP14 0x26 GASPRICE PUSH6 0xB39DE3C07EC7 0x47 DUP5 EXP 0xc7 STOP 0x29 "}}}